{
  "transactions": [
    {
      "hash": "0xa53297ff69403fb01f082789e02561b651cebbcb1e6706e4d1cbabf86648c6ae",
      "transactionType": "CALL",
      "contractName": null,
      "contractAddress": "0x1c7d4b196cb0c7b01d743fbc6116a902379c7238",
      "function": "approve(address,uint256)",
      "arguments": [
        "0xf13D190e9117920c703d79B5F33732e10049b115",
        "115792089237316195423570985008687907853269984665640564039457584007913129639935"
      ],
      "transaction": {
        "from": "0xb8994021a5ce0c9b8a6c8cf1dc48824c280a8e53",
        "to": "0x1c7d4b196cb0c7b01d743fbc6116a902379c7238",
        "gas": "0xdcef",
        "value": "0x0",
        "input": "0x095ea7b3000000000000000000000000f13d190e9117920c703d79b5f33732e10049b115ffffffffffffffffffffffffffffffffffffffffffffffffffffffffffffffff",
        "nonce": "0x7b",
        "chainId": "0xaa36a7"
      },
      "additionalContracts": [],
      "isFixedGasLimit": false
    },
    {
      "hash": "0xbae7bbb50f4f054e7223491ad75f811dabf87745571367473ded52e44c7f61e4",
      "transactionType": "CALL",
      "contractName": null,
      "contractAddress": "0xf13d190e9117920c703d79b5f33732e10049b115",
      "function": "swapExactTokensForTokens(uint256,uint256,bool,(address,address,uint24,int24,address),bytes,address,uint256)",
      "arguments": [
        "1000000",
        "0",
        "true",
        "(0x1c7D4B196Cb0C7B01d743Fbc6116a902379C7238, 0xdd13E55209Fd76AfE204dBda4007C227904f0a81, 3000, 60, 0xeC1a67DeDA1574520C940736A1Ef31d8241E80C0)",
        "0x",
        "0x1804c8AB1F12E6bbf3894d4083f33e07309d1f38",
        "1770231252"
      ],
      "transaction": {
        "from": "0xb8994021a5ce0c9b8a6c8cf1dc48824c280a8e53",
        "to": "0xf13d190e9117920c703d79b5f33732e10049b115",
        "gas": "0x2f73e",
        "value": "0x0",
        "input": "0xb1a0d57100000000000000000000000000000000000000000000000000000000000f4240000000000000000000000000000000000000000000000000000000000000000000000000000000000000000000000000000000000000000000000000000000010000000000000000000000001c7d4b196cb0c7b01d743fbc6116a902379c7238000000000000000000000000dd13e55209fd76afe204dbda4007c227904f0a810000000000000000000000000000000000000000000000000000000000000bb8000000000000000000000000000000000000000000000000000000000000003c000000000000000000000000ec1a67deda1574520c940736a1ef31d8241e80c000000000000000000000000000000000000000000000000000000000000001600000000000000000000000001804c8ab1f12e6bbf3894d4083f33e07309d1f3800000000000000000000000000000000000000000000000000000000698395d40000000000000000000000000000000000000000000000000000000000000000",
        "nonce": "0x7c",
        "chainId": "0xaa36a7"
      },
      "additionalContracts": [],
      "isFixedGasLimit": false
    }
  ],
  "receipts": [
    {
      "status": "0x1",
      "cumulativeGasUsed": "0x485a33",
      "logs": [
        {
          "address": "0x1c7d4b196cb0c7b01d743fbc6116a902379c7238",
          "topics": [
            "0x8c5be1e5ebec7d5bd14f71427d1e84f3dd0314c0f7b2291e5b200ac8c7c3b925",
            "0x000000000000000000000000b8994021a5ce0c9b8a6c8cf1dc48824c280a8e53",
            "0x000000000000000000000000f13d190e9117920c703d79b5f33732e10049b115"
          ],
          "data": "0xffffffffffffffffffffffffffffffffffffffffffffffffffffffffffffffff",
          "blockHash": "0xf9074aeb6860922b0d42d6e0da5281b604ad395cccc8972ced3077a78a005dfc",
          "blockNumber": "0x9b8267",
          "blockTimestamp": "0x69839580",
          "transactionHash": "0xbae7bbb50f4f054e7223491ad75f811dabf87745571367473ded52e44c7f61e4",
          "transactionIndex": "0x2e",
          "logIndex": "0x3f",
          "removed": false
        }
      ],
      "logsBloom": "0x00000000000000000000000000000000000000000000000000800000000200000000000010000000000000000040000000000000000000000000000000200000000000000000000000000000000000000000000000000000000000000000000000000000000000000000000000000000000000000000000000000000000000000000000000180000000000000000000000000000000000000000000000000000020000000000020000000000000000000000000000000000000000000000000000000000000000000000000000000000000000000000000000000000000080000010000000000000000010000000000000000000000000000000000000000000",
      "type": "0x2",
      "transactionHash": "0xbae7bbb50f4f054e7223491ad75f811dabf87745571367473ded52e44c7f61e4",
      "transactionIndex": "0x2e",
      "blockHash": "0xf9074aeb6860922b0d42d6e0da5281b604ad395cccc8972ced3077a78a005dfc",
      "blockNumber": "0x9b8267",
      "gasUsed": "0x9711",
      "effectiveGasPrice": "0x3f56e236",
      "from": "0xb8994021a5ce0c9b8a6c8cf1dc48824c280a8e53",
      "to": "0x1c7d4b196cb0c7b01d743fbc6116a902379c7238",
      "contractAddress": null
    },
    {
      "status": "0x1",
      "cumulativeGasUsed": "0x4a7fe2",
      "logs": [
        {
          "address": "0xe03a1074c86cfedd5c142c4f04f1a1536e203543",
          "topics": [
            "0x40e9cecb9f5f1f1c5b9c97dec2917b7ee92e57ba5563708daca94dd84ad7112f",
            "0xf8591a339cba73a024246d7b1399e02d8b118826fc9861555fb1ea243691c95e",
            "0x000000000000000000000000f13d190e9117920c703d79b5f33732e10049b115"
          ],
          "data": "0xfffffffffffffffffffffffffffffffffffffffffffffffffffffffffff0bdc0000000000000000000000000000000000000000000000000000000000000e7f70000000000000000000000000000000000000000380bf284a2ee2bab0d6f55c50000000000000000000000000000000000000000000000000000000000110e87ffffffffffffffffffffffffffffffffffffffffffffffffffffffffffff89520000000000000000000000000000000000000000000000000000000000000bb8",
          "blockHash": "0xf9074aeb6860922b0d42d6e0da5281b604ad395cccc8972ced3077a78a005dfc",
          "blockNumber": "0x9b8267",
          "blockTimestamp": "0x69839580",
          "transactionHash": "0xa53297ff69403fb01f082789e02561b651cebbcb1e6706e4d1cbabf86648c6ae",
          "transactionIndex": "0x2f",
          "logIndex": "0x40",
          "removed": false
        },
        {
          "address": "0x1c7d4b196cb0c7b01d743fbc6116a902379c7238",
          "topics": [
            "0xddf252ad1be2c89b69c2b068fc378daa952ba7f163c4a11628f55a4df523b3ef",
            "0x000000000000000000000000b8994021a5ce0c9b8a6c8cf1dc48824c280a8e53",
            "0x000000000000000000000000e03a1074c86cfedd5c142c4f04f1a1536e203543"
          ],
          "data": "0x00000000000000000000000000000000000000000000000000000000000f4240",
          "blockHash": "0xf9074aeb6860922b0d42d6e0da5281b604ad395cccc8972ced3077a78a005dfc",
          "blockNumber": "0x9b8267",
          "blockTimestamp": "0x69839580",
          "transactionHash": "0xa53297ff69403fb01f082789e02561b651cebbcb1e6706e4d1cbabf86648c6ae",
          "transactionIndex": "0x2f",
          "logIndex": "0x41",
          "removed": false
        },
        {
          "address": "0xdd13e55209fd76afe204dbda4007c227904f0a81",
          "topics": [
            "0xddf252ad1be2c89b69c2b068fc378daa952ba7f163c4a11628f55a4df523b3ef",
            "0x000000000000000000000000e03a1074c86cfedd5c142c4f04f1a1536e203543",
            "0x0000000000000000000000001804c8ab1f12e6bbf3894d4083f33e07309d1f38"
          ],
          "data": "0x000000000000000000000000000000000000000000000000000000000000e7f7",
          "blockHash": "0xf9074aeb6860922b0d42d6e0da5281b604ad395cccc8972ced3077a78a005dfc",
          "blockNumber": "0x9b8267",
          "blockTimestamp": "0x69839580",
          "transactionHash": "0xa53297ff69403fb01f082789e02561b651cebbcb1e6706e4d1cbabf86648c6ae",
          "transactionIndex": "0x2f",
          "logIndex": "0x42",
          "removed": false
        }
      ],
      "logsBloom": "0x00000000000000000000000000000000000000000000000000800000000200000000000010004000000000000040000000000100040000000000000000000000000000000000000000000008000000000000000000000020000000000000000000000000000000000001000080000000000000000000100000008010000000000000000000180000000014000000000000000000000000000000000000000000000000000000020000000000000000000000000000000000020000000000000000000002000004000000000000000000000000000000000000001000000080001000000020000000004011000000000000010000000000000000000000000000",
      "type": "0x2",
      "transactionHash": "0xa53297ff69403fb01f082789e02561b651cebbcb1e6706e4d1cbabf86648c6ae",
      "transactionIndex": "0x2f",
      "blockHash": "0xf9074aeb6860922b0d42d6e0da5281b604ad395cccc8972ced3077a78a005dfc",
      "blockNumber": "0x9b8267",
      "gasUsed": "0x225af",
      "effectiveGasPrice": "0x3f56e236",
      "from": "0xb8994021a5ce0c9b8a6c8cf1dc48824c280a8e53",
      "to": "0xf13d190e9117920c703d79b5f33732e10049b115",
      "contractAddress": null
    }
  ],
  "libraries": [],
  "pending": [],
  "returns": {},
  "timestamp": 1770231169635,
  "chain": 11155111,
  "commit": "91b2758"
}