{
  "transactions": [
    {
      "hash": "0x2719054004a69126cce3ad0abb4ed47478304109cd91a590873f5a4bf94976df",
      "transactionType": "CALL",
      "contractName": null,
      "contractAddress": "0x1c7d4b196cb0c7b01d743fbc6116a902379c7238",
      "function": "approve(address,uint256)",
      "arguments": [
        "0xf13D190e9117920c703d79B5F33732e10049b115",
        "115792089237316195423570985008687907853269984665640564039457584007913129639935"
      ],
      "transaction": {
        "from": "0xb8994021a5ce0c9b8a6c8cf1dc48824c280a8e53",
        "to": "0x1c7d4b196cb0c7b01d743fbc6116a902379c7238",
        "gas": "0xdcef",
        "value": "0x0",
        "input": "0x095ea7b3000000000000000000000000f13d190e9117920c703d79b5f33732e10049b115ffffffffffffffffffffffffffffffffffffffffffffffffffffffffffffffff",
        "nonce": "0x79",
        "chainId": "0xaa36a7"
      },
      "additionalContracts": [],
      "isFixedGasLimit": false
    },
    {
      "hash": "0xc305bed325c8d4f756a9d66c26d99214930453931e4e73a763584a4c4e663e21",
      "transactionType": "CALL",
      "contractName": null,
      "contractAddress": "0xf13d190e9117920c703d79b5f33732e10049b115",
      "function": "swapExactTokensForTokens(uint256,uint256,bool,(address,address,uint24,int24,address),bytes,address,uint256)",
      "arguments": [
        "1000000",
        "0",
        "true",
        "(0x1c7D4B196Cb0C7B01d743Fbc6116a902379C7238, 0xdd13E55209Fd76AfE204dBda4007C227904f0a81, 3000, 60, 0xeC1a67DeDA1574520C940736A1Ef31d8241E80C0)",
        "0x",
        "0x1804c8AB1F12E6bbf3894d4083f33e07309d1f38",
        "1770230016"
      ],
      "transaction": {
        "from": "0xb8994021a5ce0c9b8a6c8cf1dc48824c280a8e53",
        "to": "0xf13d190e9117920c703d79b5f33732e10049b115",
        "gas": "0x3213d",
        "value": "0x0",
        "input": "0xb1a0d57100000000000000000000000000000000000000000000000000000000000f4240000000000000000000000000000000000000000000000000000000000000000000000000000000000000000000000000000000000000000000000000000000010000000000000000000000001c7d4b196cb0c7b01d743fbc6116a902379c7238000000000000000000000000dd13e55209fd76afe204dbda4007c227904f0a810000000000000000000000000000000000000000000000000000000000000bb8000000000000000000000000000000000000000000000000000000000000003c000000000000000000000000ec1a67deda1574520c940736a1ef31d8241e80c000000000000000000000000000000000000000000000000000000000000001600000000000000000000000001804c8ab1f12e6bbf3894d4083f33e07309d1f3800000000000000000000000000000000000000000000000000000000698391000000000000000000000000000000000000000000000000000000000000000000",
        "nonce": "0x7a",
        "chainId": "0xaa36a7"
      },
      "additionalContracts": [],
      "isFixedGasLimit": false
    }
  ],
  "receipts": [
    {
      "status": "0x1",
      "cumulativeGasUsed": "0x7e95e5",
      "logs": [
        {
          "address": "0x1c7d4b196cb0c7b01d743fbc6116a902379c7238",
          "topics": [
            "0x8c5be1e5ebec7d5bd14f71427d1e84f3dd0314c0f7b2291e5b200ac8c7c3b925",
            "0x000000000000000000000000b8994021a5ce0c9b8a6c8cf1dc48824c280a8e53",
            "0x000000000000000000000000f13d190e9117920c703d79b5f33732e10049b115"
          ],
          "data": "0xffffffffffffffffffffffffffffffffffffffffffffffffffffffffffffffff",
          "blockHash": "0x9a173adcc5a71cfbef0c63ad58484f6f4888bcb1c5773ad31a460a615d0fcba7",
          "blockNumber": "0x9b8203",
          "blockTimestamp": "0x698390a0",
          "transactionHash": "0xc305bed325c8d4f756a9d66c26d99214930453931e4e73a763584a4c4e663e21",
          "transactionIndex": "0x3c",
          "logIndex": "0x68",
          "removed": false
        }
      ],
      "logsBloom": "0x00000000000000000000000000000000000000000000000000800000000200000000000010000000000000000040000000000000000000000000000000200000000000000000000000000000000000000000000000000000000000000000000000000000000000000000000000000000000000000000000000000000000000000000000000180000000000000000000000000000000000000000000000000000020000000000020000000000000000000000000000000000000000000000000000000000000000000000000000000000000000000000000000000000000080000010000000000000000010000000000000000000000000000000000000000000",
      "type": "0x2",
      "transactionHash": "0xc305bed325c8d4f756a9d66c26d99214930453931e4e73a763584a4c4e663e21",
      "transactionIndex": "0x3c",
      "blockHash": "0x9a173adcc5a71cfbef0c63ad58484f6f4888bcb1c5773ad31a460a615d0fcba7",
      "blockNumber": "0x9b8203",
      "gasUsed": "0x9711",
      "effectiveGasPrice": "0x3da225bd",
      "from": "0xb8994021a5ce0c9b8a6c8cf1dc48824c280a8e53",
      "to": "0x1c7d4b196cb0c7b01d743fbc6116a902379c7238",
      "contractAddress": null
    },
    {
      "status": "0x1",
      "cumulativeGasUsed": "0x80ce28",
      "logs": [
        {
          "address": "0xe03a1074c86cfedd5c142c4f04f1a1536e203543",
          "topics": [
            "0x40e9cecb9f5f1f1c5b9c97dec2917b7ee92e57ba5563708daca94dd84ad7112f",
            "0xf8591a339cba73a024246d7b1399e02d8b118826fc9861555fb1ea243691c95e",
            "0x000000000000000000000000f13d190e9117920c703d79b5f33732e10049b115"
          ],
          "data": "0xfffffffffffffffffffffffffffffffffffffffffffffffffffffffffff0bdc00000000000000000000000000000000000000000000000000000000000017c9a000000000000000000000000000000000000000045a5735ec968ca8c08c647fd0000000000000000000000000000000000000000000000000000000000110e87ffffffffffffffffffffffffffffffffffffffffffffffffffffffffffff9a4b0000000000000000000000000000000000000000000000000000000000000bb8",
          "blockHash": "0x9a173adcc5a71cfbef0c63ad58484f6f4888bcb1c5773ad31a460a615d0fcba7",
          "blockNumber": "0x9b8203",
          "blockTimestamp": "0x698390a0",
          "transactionHash": "0x2719054004a69126cce3ad0abb4ed47478304109cd91a590873f5a4bf94976df",
          "transactionIndex": "0x3d",
          "logIndex": "0x69",
          "removed": false
        },
        {
          "address": "0x1c7d4b196cb0c7b01d743fbc6116a902379c7238",
          "topics": [
            "0xddf252ad1be2c89b69c2b068fc378daa952ba7f163c4a11628f55a4df523b3ef",
            "0x000000000000000000000000b8994021a5ce0c9b8a6c8cf1dc48824c280a8e53",
            "0x000000000000000000000000e03a1074c86cfedd5c142c4f04f1a1536e203543"
          ],
          "data": "0x00000000000000000000000000000000000000000000000000000000000f4240",
          "blockHash": "0x9a173adcc5a71cfbef0c63ad58484f6f4888bcb1c5773ad31a460a615d0fcba7",
          "blockNumber": "0x9b8203",
          "blockTimestamp": "0x698390a0",
          "transactionHash": "0x2719054004a69126cce3ad0abb4ed47478304109cd91a590873f5a4bf94976df",
          "transactionIndex": "0x3d",
          "logIndex": "0x6a",
          "removed": false
        },
        {
          "address": "0xdd13e55209fd76afe204dbda4007c227904f0a81",
          "topics": [
            "0xddf252ad1be2c89b69c2b068fc378daa952ba7f163c4a11628f55a4df523b3ef",
            "0x000000000000000000000000e03a1074c86cfedd5c142c4f04f1a1536e203543",
            "0x0000000000000000000000001804c8ab1f12e6bbf3894d4083f33e07309d1f38"
          ],
          "data": "0x0000000000000000000000000000000000000000000000000000000000017c9a",
          "blockHash": "0x9a173adcc5a71cfbef0c63ad58484f6f4888bcb1c5773ad31a460a615d0fcba7",
          "blockNumber": "0x9b8203",
          "blockTimestamp": "0x698390a0",
          "transactionHash": "0x2719054004a69126cce3ad0abb4ed47478304109cd91a590873f5a4bf94976df",
          "transactionIndex": "0x3d",
          "logIndex": "0x6b",
          "removed": false
        }
      ],
      "logsBloom": "0x00000000000000000000000000000000000000000000000000800000000200000000000010004000000000000040000000000100040000000000000000000000000000000000000000000008000000000000000000000020000000000000000000000000000000000001000080000000000000000000100000008010000000000000000000180000000014000000000000000000000000000000000000000000000000000000020000000000000000000000000000000000020000000000000000000002000004000000000000000000000000000000000000001000000080001000000020000000004011000000000000010000000000000000000000000000",
      "type": "0x2",
      "transactionHash": "0x2719054004a69126cce3ad0abb4ed47478304109cd91a590873f5a4bf94976df",
      "transactionIndex": "0x3d",
      "blockHash": "0x9a173adcc5a71cfbef0c63ad58484f6f4888bcb1c5773ad31a460a615d0fcba7",
      "blockNumber": "0x9b8203",
      "gasUsed": "0x23843",
      "effectiveGasPrice": "0x3da225bd",
      "from": "0xb8994021a5ce0c9b8a6c8cf1dc48824c280a8e53",
      "to": "0xf13d190e9117920c703d79b5f33732e10049b115",
      "contractAddress": null
    }
  ],
  "libraries": [],
  "pending": [],
  "returns": {},
  "timestamp": 1770229920630,
  "chain": 11155111,
  "commit": "91b2758"
}