{
  "transactions": [
    {
      "hash": "0x30cb98a0ef0881a0dfb3952d1ce724af31b8d9be0a5caaac2289c94e186a0e6a",
      "transactionType": "CALL",
      "contractName": null,
      "contractAddress": "0x1c7d4b196cb0c7b01d743fbc6116a902379c7238",
      "function": "approve(address,uint256)",
      "arguments": [
        "0xf13D190e9117920c703d79B5F33732e10049b115",
        "115792089237316195423570985008687907853269984665640564039457584007913129639935"
      ],
      "transaction": {
        "from": "0xb8994021a5ce0c9b8a6c8cf1dc48824c280a8e53",
        "to": "0x1c7d4b196cb0c7b01d743fbc6116a902379c7238",
        "gas": "0x12ceb",
        "value": "0x0",
        "input": "0x095ea7b3000000000000000000000000f13d190e9117920c703d79b5f33732e10049b115ffffffffffffffffffffffffffffffffffffffffffffffffffffffffffffffff",
        "nonce": "0x75",
        "chainId": "0xaa36a7"
      },
      "additionalContracts": [],
      "isFixedGasLimit": false
    },
    {
      "hash": "0xae77b6271ccaea81455e0edd2b2207d4c4a54744c2346eb3135d5fca591c8ed4",
      "transactionType": "CALL",
      "contractName": null,
      "contractAddress": "0xf13d190e9117920c703d79b5f33732e10049b115",
      "function": "swapExactTokensForTokens(uint256,uint256,bool,(address,address,uint24,int24,address),bytes,address,uint256)",
      "arguments": [
        "1000000",
        "0",
        "true",
        "(0x1c7D4B196Cb0C7B01d743Fbc6116a902379C7238, 0xdd13E55209Fd76AfE204dBda4007C227904f0a81, 3000, 60, 0xeC1a67DeDA1574520C940736A1Ef31d8241E80C0)",
        "0x",
        "0x1804c8AB1F12E6bbf3894d4083f33e07309d1f38",
        "1770228024"
      ],
      "transaction": {
        "from": "0xb8994021a5ce0c9b8a6c8cf1dc48824c280a8e53",
        "to": "0xf13d190e9117920c703d79b5f33732e10049b115",
        "gas": "0x4acca",
        "value": "0x0",
        "input": "0xb1a0d57100000000000000000000000000000000000000000000000000000000000f4240000000000000000000000000000000000000000000000000000000000000000000000000000000000000000000000000000000000000000000000000000000010000000000000000000000001c7d4b196cb0c7b01d743fbc6116a902379c7238000000000000000000000000dd13e55209fd76afe204dbda4007c227904f0a810000000000000000000000000000000000000000000000000000000000000bb8000000000000000000000000000000000000000000000000000000000000003c000000000000000000000000ec1a67deda1574520c940736a1ef31d8241e80c000000000000000000000000000000000000000000000000000000000000001600000000000000000000000001804c8ab1f12e6bbf3894d4083f33e07309d1f3800000000000000000000000000000000000000000000000000000000698389380000000000000000000000000000000000000000000000000000000000000000",
        "nonce": "0x76",
        "chainId": "0xaa36a7"
      },
      "additionalContracts": [],
      "isFixedGasLimit": false
    }
  ],
  "receipts": [
    {
      "status": "0x1",
      "cumulativeGasUsed": "0xd217b4",
      "logs": [
        {
          "address": "0x1c7d4b196cb0c7b01d743fbc6116a902379c7238",
          "topics": [
            "0x8c5be1e5ebec7d5bd14f71427d1e84f3dd0314c0f7b2291e5b200ac8c7c3b925",
            "0x000000000000000000000000b8994021a5ce0c9b8a6c8cf1dc48824c280a8e53",
            "0x000000000000000000000000f13d190e9117920c703d79b5f33732e10049b115"
          ],
          "data": "0xffffffffffffffffffffffffffffffffffffffffffffffffffffffffffffffff",
          "blockHash": "0x9e45047d76a8a54477cb9c4cee312505be49c8096be9b6392e3fd7d237f05ee7",
          "blockNumber": "0x9b8169",
          "blockTimestamp": "0x698388d8",
          "transactionHash": "0x30cb98a0ef0881a0dfb3952d1ce724af31b8d9be0a5caaac2289c94e186a0e6a",
          "transactionIndex": "0x4c",
          "logIndex": "0x7d",
          "removed": false
        }
      ],
      "logsBloom": "0x00000000000000000000000000000000000000000000000000800000000200000000000010000000000000000040000000000000000000000000000000200000000000000000000000000000000000000000000000000000000000000000000000000000000000000000000000000000000000000000000000000000000000000000000000180000000000000000000000000000000000000000000000000000020000000000020000000000000000000000000000000000000000000000000000000000000000000000000000000000000000000000000000000000000080000010000000000000000010000000000000000000000000000000000000000000",
      "type": "0x2",
      "transactionHash": "0x30cb98a0ef0881a0dfb3952d1ce724af31b8d9be0a5caaac2289c94e186a0e6a",
      "transactionIndex": "0x4c",
      "blockHash": "0x9e45047d76a8a54477cb9c4cee312505be49c8096be9b6392e3fd7d237f05ee7",
      "blockNumber": "0x9b8169",
      "gasUsed": "0xd9dd",
      "effectiveGasPrice": "0x42cc1584",
      "from": "0xb8994021a5ce0c9b8a6c8cf1dc48824c280a8e53",
      "to": "0x1c7d4b196cb0c7b01d743fbc6116a902379c7238",
      "contractAddress": null
    },
    {
      "status": "0x1",
      "cumulativeGasUsed": "0xd57a29",
      "logs": [
        {
          "address": "0xe03a1074c86cfedd5c142c4f04f1a1536e203543",
          "topics": [
            "0x40e9cecb9f5f1f1c5b9c97dec2917b7ee92e57ba5563708daca94dd84ad7112f",
            "0xf8591a339cba73a024246d7b1399e02d8b118826fc9861555fb1ea243691c95e",
            "0x000000000000000000000000f13d190e9117920c703d79b5f33732e10049b115"
          ],
          "data": "0xfffffffffffffffffffffffffffffffffffffffffffffffffffffffffff0bdc00000000000000000000000000000000000000000000000000000000000080a850000000000000000000000000000000000000000875033a31030a780057043630000000000000000000000000000000000000000000000000000000000110e87ffffffffffffffffffffffffffffffffffffffffffffffffffffffffffffce2f0000000000000000000000000000000000000000000000000000000000000bb8",
          "blockHash": "0x9e45047d76a8a54477cb9c4cee312505be49c8096be9b6392e3fd7d237f05ee7",
          "blockNumber": "0x9b8169",
          "blockTimestamp": "0x698388d8",
          "transactionHash": "0xae77b6271ccaea81455e0edd2b2207d4c4a54744c2346eb3135d5fca591c8ed4",
          "transactionIndex": "0x4d",
          "logIndex": "0x7e",
          "removed": false
        },
        {
          "address": "0x1c7d4b196cb0c7b01d743fbc6116a902379c7238",
          "topics": [
            "0xddf252ad1be2c89b69c2b068fc378daa952ba7f163c4a11628f55a4df523b3ef",
            "0x000000000000000000000000b8994021a5ce0c9b8a6c8cf1dc48824c280a8e53",
            "0x000000000000000000000000e03a1074c86cfedd5c142c4f04f1a1536e203543"
          ],
          "data": "0x00000000000000000000000000000000000000000000000000000000000f4240",
          "blockHash": "0x9e45047d76a8a54477cb9c4cee312505be49c8096be9b6392e3fd7d237f05ee7",
          "blockNumber": "0x9b8169",
          "blockTimestamp": "0x698388d8",
          "transactionHash": "0xae77b6271ccaea81455e0edd2b2207d4c4a54744c2346eb3135d5fca591c8ed4",
          "transactionIndex": "0x4d",
          "logIndex": "0x7f",
          "removed": false
        },
        {
          "address": "0xdd13e55209fd76afe204dbda4007c227904f0a81",
          "topics": [
            "0xddf252ad1be2c89b69c2b068fc378daa952ba7f163c4a11628f55a4df523b3ef",
            "0x000000000000000000000000e03a1074c86cfedd5c142c4f04f1a1536e203543",
            "0x0000000000000000000000001804c8ab1f12e6bbf3894d4083f33e07309d1f38"
          ],
          "data": "0x0000000000000000000000000000000000000000000000000000000000080a85",
          "blockHash": "0x9e45047d76a8a54477cb9c4cee312505be49c8096be9b6392e3fd7d237f05ee7",
          "blockNumber": "0x9b8169",
          "blockTimestamp": "0x698388d8",
          "transactionHash": "0xae77b6271ccaea81455e0edd2b2207d4c4a54744c2346eb3135d5fca591c8ed4",
          "transactionIndex": "0x4d",
          "logIndex": "0x80",
          "removed": false
        }
      ],
      "logsBloom": "0x00000000000000000000000000000000000000000000000000800000000200000000000010004000000000000040000000000100040000000000000000000000000000000000000000000008000000000000000000000020000000000000000000000000000000000001000080000000000000000000100000008010000000000000000000180000000014000000000000000000000000000000000000000000000000000000020000000000000000000000000000000000020000000000000000000002000004000000000000000000000000000000000000001000000080001000000020000000004011000000000000010000000000000000000000000000",
      "type": "0x2",
      "transactionHash": "0xae77b6271ccaea81455e0edd2b2207d4c4a54744c2346eb3135d5fca591c8ed4",
      "transactionIndex": "0x4d",
      "blockHash": "0x9e45047d76a8a54477cb9c4cee312505be49c8096be9b6392e3fd7d237f05ee7",
      "blockNumber": "0x9b8169",
      "gasUsed": "0x36275",
      "effectiveGasPrice": "0x42cc1584",
      "from": "0xb8994021a5ce0c9b8a6c8cf1dc48824c280a8e53",
      "to": "0xf13d190e9117920c703d79b5f33732e10049b115",
      "contractAddress": null
    }
  ],
  "libraries": [],
  "pending": [],
  "returns": {},
  "timestamp": 1770227929880,
  "chain": 11155111,
  "commit": "f143dd7"
}