{
  "transactions": [
    {
      "hash": "0x7eb7f10cdcb032034a68f1d4e4b9abbf6ab66c4befc6e071cfb19865f5354bcb",
      "transactionType": "CALL",
      "contractName": null,
      "contractAddress": "0xdd13e55209fd76afe204dbda4007c227904f0a81",
      "function": "approve(address,uint256)",
      "arguments": [
        "0x000000000022D473030F116dDEE9F6B43aC78BA3",
        "115792089237316195423570985008687907853269984665640564039457584007913129639935"
      ],
      "transaction": {
        "from": "0xb8994021a5ce0c9b8a6c8cf1dc48824c280a8e53",
        "to": "0xdd13e55209fd76afe204dbda4007c227904f0a81",
        "gas": "0x108b9",
        "value": "0x0",
        "input": "0x095ea7b3000000000000000000000000000000000022d473030f116ddee9f6b43ac78ba3ffffffffffffffffffffffffffffffffffffffffffffffffffffffffffffffff",
        "nonce": "0x6f",
        "chainId": "0xaa36a7"
      },
      "additionalContracts": [],
      "isFixedGasLimit": false
    },
    {
      "hash": "0xb5a4a7c2a9a6165243b03e309ddb82f672edf8146a7de05a8cb47783ece2c976",
      "transactionType": "CALL",
      "contractName": null,
      "contractAddress": "0x000000000022d473030f116ddee9f6b43ac78ba3",
      "function": "approve(address,address,uint160,uint48)",
      "arguments": [
        "0xdd13E55209Fd76AfE204dBda4007C227904f0a81",
        "0x429ba70129df741B2Ca2a85BC3A2a3328e5c09b4",
        "1461501637330902918203684832716283019655932542975",
        "281474976710655"
      ],
      "transaction": {
        "from": "0xb8994021a5ce0c9b8a6c8cf1dc48824c280a8e53",
        "to": "0x000000000022d473030f116ddee9f6b43ac78ba3",
        "gas": "0x1112d",
        "value": "0x0",
        "input": "0x87517c45000000000000000000000000dd13e55209fd76afe204dbda4007c227904f0a81000000000000000000000000429ba70129df741b2ca2a85bc3a2a3328e5c09b4000000000000000000000000ffffffffffffffffffffffffffffffffffffffff0000000000000000000000000000000000000000000000000000ffffffffffff",
        "nonce": "0x70",
        "chainId": "0xaa36a7"
      },
      "additionalContracts": [],
      "isFixedGasLimit": false
    },
    {
      "hash": "0x10751d76c34fc4c5acbb8db001a98bd7bad5b463de49bf5e436f9f68c4a30821",
      "transactionType": "CALL",
      "contractName": null,
      "contractAddress": "0x1c7d4b196cb0c7b01d743fbc6116a902379c7238",
      "function": "approve(address,uint256)",
      "arguments": [
        "0x000000000022D473030F116dDEE9F6B43aC78BA3",
        "115792089237316195423570985008687907853269984665640564039457584007913129639935"
      ],
      "transaction": {
        "from": "0xb8994021a5ce0c9b8a6c8cf1dc48824c280a8e53",
        "to": "0x1c7d4b196cb0c7b01d743fbc6116a902379c7238",
        "gas": "0x12ca9",
        "value": "0x0",
        "input": "0x095ea7b3000000000000000000000000000000000022d473030f116ddee9f6b43ac78ba3ffffffffffffffffffffffffffffffffffffffffffffffffffffffffffffffff",
        "nonce": "0x71",
        "chainId": "0xaa36a7"
      },
      "additionalContracts": [],
      "isFixedGasLimit": false
    },
    {
      "hash": "0xbf2f9af60d4c404ad1a0bf3a141ab78b4e41a497011f02fa2fbfaa65afd6cea7",
      "transactionType": "CALL",
      "contractName": null,
      "contractAddress": "0x000000000022d473030f116ddee9f6b43ac78ba3",
      "function": "approve(address,address,uint160,uint48)",
      "arguments": [
        "0x1c7D4B196Cb0C7B01d743Fbc6116a902379C7238",
        "0x429ba70129df741B2Ca2a85BC3A2a3328e5c09b4",
        "1461501637330902918203684832716283019655932542975",
        "281474976710655"
      ],
      "transaction": {
        "from": "0xb8994021a5ce0c9b8a6c8cf1dc48824c280a8e53",
        "to": "0x000000000022d473030f116ddee9f6b43ac78ba3",
        "gas": "0x1112d",
        "value": "0x0",
        "input": "0x87517c450000000000000000000000001c7d4b196cb0c7b01d743fbc6116a902379c7238000000000000000000000000429ba70129df741b2ca2a85bc3a2a3328e5c09b4000000000000000000000000ffffffffffffffffffffffffffffffffffffffff0000000000000000000000000000000000000000000000000000ffffffffffff",
        "nonce": "0x72",
        "chainId": "0xaa36a7"
      },
      "additionalContracts": [],
      "isFixedGasLimit": false
    },
    {
      "hash": "0x0e6be1cc3cc7e52edf12e333881414735e620a8a1a6510dc9c662f683e24bb82",
      "transactionType": "CALL",
      "contractName": null,
      "contractAddress": "0xdd13e55209fd76afe204dbda4007c227904f0a81",
      "function": "deposit()",
      "arguments": [],
      "transaction": {
        "from": "0xb8994021a5ce0c9b8a6c8cf1dc48824c280a8e53",
        "to": "0xdd13e55209fd76afe204dbda4007c227904f0a81",
        "gas": "0xf2d3",
        "value": "0x38d7ea4c68000",
        "input": "0xd0e30db0",
        "nonce": "0x73",
        "chainId": "0xaa36a7"
      },
      "additionalContracts": [],
      "isFixedGasLimit": false
    },
    {
      "hash": "0x6d8cfc954210702e3fbf2632fc4edf76b94a3260df8e39e28efaa89365d59a7f",
      "transactionType": "CALL",
      "contractName": null,
      "contractAddress": "0x429ba70129df741b2ca2a85bc3a2a3328e5c09b4",
      "function": "multicall(bytes[])",
      "arguments": [
        "[0xf70204050000000000000000000000001c7d4b196cb0c7b01d743fbc6116a902379c7238000000000000000000000000dd13e55209fd76afe204dbda4007c227904f0a810000000000000000000000000000000000000000000000000000000000000bb8000000000000000000000000000000000000000000000000000000000000003c000000000000000000000000ec1a67deda1574520c940736a1ef31d8241e80c0000000000000000000000000000000000000000100000000000000000000000000000000000000000000000000000000000000000000000000000000000000e00000000000000000000000000000000000000000000000000000000000000000, 0xdd46508f000000000000000000000000000000000000000000000000000000000000004000000000000000000000000000000000000000000000000000000000698391000000000000000000000000000000000000000000000000000000000000000400000000000000000000000000000000000000000000000000000000000000004000000000000000000000000000000000000000000000000000000000000000800000000000000000000000000000000000000000000000000000000000000004020d14140000000000000000000000000000000000000000000000000000000000000000000000000000000000000000000000000000000000000000000000040000000000000000000000000000000000000000000000000000000000000080000000000000000000000000000000000000000000000000000000000000024000000000000000000000000000000000000000000000000000000000000002a0000000000000000000000000000000000000000000000000000000000000030000000000000000000000000000000000000000000000000000000000000001a00000000000000000000000001c7d4b196cb0c7b01d743fbc6116a902379c7238000000000000000000000000dd13e55209fd76afe204dbda4007c227904f0a810000000000000000000000000000000000000000000000000000000000000bb8000000000000000000000000000000000000000000000000000000000000003c000000000000000000000000ec1a67deda1574520c940736a1ef31d8241e80c0ffffffffffffffffffffffffffffffffffffffffffffffffffffffffffff5038000000000000000000000000000000000000000000000000000000000000afc80000000000000000000000000000000000000000000000000000000000110e8700000000000000000000000000000000000000000000000000038d7ea4c6800100000000000000000000000000000000000000000000000000000000000f4241000000000000000000000000b8994021a5ce0c9b8a6c8cf1dc48824c280a8e530000000000000000000000000000000000000000000000000000000000000180000000000000000000000000000000000000000000000000000000000000000000000000000000000000000000000000000000000000000000000000000000400000000000000000000000001c7d4b196cb0c7b01d743fbc6116a902379c7238000000000000000000000000dd13e55209fd76afe204dbda4007c227904f0a8100000000000000000000000000000000000000000000000000000000000000400000000000000000000000001c7d4b196cb0c7b01d743fbc6116a902379c7238000000000000000000000000b8994021a5ce0c9b8a6c8cf1dc48824c280a8e530000000000000000000000000000000000000000000000000000000000000040000000000000000000000000dd13e55209fd76afe204dbda4007c227904f0a81000000000000000000000000b8994021a5ce0c9b8a6c8cf1dc48824c280a8e53]"
      ],
      "transaction": {
        "from": "0xb8994021a5ce0c9b8a6c8cf1dc48824c280a8e53",
        "to": "0x429ba70129df741b2ca2a85bc3a2a3328e5c09b4",
        "gas": "0x9ebfc",
        "value": "0x0",
        "input": "0xac9650d800000000000000000000000000000000000000000000000000000000000000200000000000000000000000000000000000000000000000000000000000000002000000000000000000000000000000000000000000000000000000000000004000000000000000000000000000000000000000000000000000000000000001800000000000000000000000000000000000000000000000000000000000000104f70204050000000000000000000000001c7d4b196cb0c7b01d743fbc6116a902379c7238000000000000000000000000dd13e55209fd76afe204dbda4007c227904f0a810000000000000000000000000000000000000000000000000000000000000bb8000000000000000000000000000000000000000000000000000000000000003c000000000000000000000000ec1a67deda1574520c940736a1ef31d8241e80c0000000000000000000000000000000000000000100000000000000000000000000000000000000000000000000000000000000000000000000000000000000e00000000000000000000000000000000000000000000000000000000000000000000000000000000000000000000000000000000000000000000000000000000000000000000000000000000000000000000000000000000000000464dd46508f000000000000000000000000000000000000000000000000000000000000004000000000000000000000000000000000000000000000000000000000698391000000000000000000000000000000000000000000000000000000000000000400000000000000000000000000000000000000000000000000000000000000004000000000000000000000000000000000000000000000000000000000000000800000000000000000000000000000000000000000000000000000000000000004020d14140000000000000000000000000000000000000000000000000000000000000000000000000000000000000000000000000000000000000000000000040000000000000000000000000000000000000000000000000000000000000080000000000000000000000000000000000000000000000000000000000000024000000000000000000000000000000000000000000000000000000000000002a0000000000000000000000000000000000000000000000000000000000000030000000000000000000000000000000000000000000000000000000000000001a00000000000000000000000001c7d4b196cb0c7b01d743fbc6116a902379c7238000000000000000000000000dd13e55209fd76afe204dbda4007c227904f0a810000000000000000000000000000000000000000000000000000000000000bb8000000000000000000000000000000000000000000000000000000000000003c000000000000000000000000ec1a67deda1574520c940736a1ef31d8241e80c0ffffffffffffffffffffffffffffffffffffffffffffffffffffffffffff5038000000000000000000000000000000000000000000000000000000000000afc80000000000000000000000000000000000000000000000000000000000110e8700000000000000000000000000000000000000000000000000038d7ea4c6800100000000000000000000000000000000000000000000000000000000000f4241000000000000000000000000b8994021a5ce0c9b8a6c8cf1dc48824c280a8e530000000000000000000000000000000000000000000000000000000000000180000000000000000000000000000000000000000000000000000000000000000000000000000000000000000000000000000000000000000000000000000000400000000000000000000000001c7d4b196cb0c7b01d743fbc6116a902379c7238000000000000000000000000dd13e55209fd76afe204dbda4007c227904f0a8100000000000000000000000000000000000000000000000000000000000000400000000000000000000000001c7d4b196cb0c7b01d743fbc6116a902379c7238000000000000000000000000b8994021a5ce0c9b8a6c8cf1dc48824c280a8e530000000000000000000000000000000000000000000000000000000000000040000000000000000000000000dd13e55209fd76afe204dbda4007c227904f0a81000000000000000000000000b8994021a5ce0c9b8a6c8cf1dc48824c280a8e5300000000000000000000000000000000000000000000000000000000",
        "nonce": "0x74",
        "chainId": "0xaa36a7"
      },
      "additionalContracts": [],
      "isFixedGasLimit": false
    }
  ],
  "receipts": [
    {
      "status": "0x1",
      "cumulativeGasUsed": "0xb502",
      "logs": [
        {
          "address": "0xdd13e55209fd76afe204dbda4007c227904f0a81",
          "topics": [
            "0x8c5be1e5ebec7d5bd14f71427d1e84f3dd0314c0f7b2291e5b200ac8c7c3b925",
            "0x000000000000000000000000b8994021a5ce0c9b8a6c8cf1dc48824c280a8e53",
            "0x000000000000000000000000000000000022d473030f116ddee9f6b43ac78ba3"
          ],
          "data": "0xffffffffffffffffffffffffffffffffffffffffffffffffffffffffffffffff",
          "blockHash": "0xee427bbba6a9e8b658def3d1dda6894533ef0f141441997c283bb282989e031c",
          "blockNumber": "0x9b80ef",
          "blockTimestamp": "0x698383a5",
          "transactionHash": "0x7eb7f10cdcb032034a68f1d4e4b9abbf6ab66c4befc6e071cfb19865f5354bcb",
          "transactionIndex": "0x0",
          "logIndex": "0x0",
          "removed": false
        }
      ],
      "logsBloom": "0x00000000000000000000000000000000000000000000000000000000000000000000000010000000000000000040000000000000800000000000000000200000000000000000000000004000000000000000000000000800000000000000000000000000000000000000000000000000000000000000000000008000000000000000000000000000000000000000000000000000000000000000000000000000020000000000020000000000000000000000000000000000020000000000000000000000000000000000000000000000000000000000000000000000000000000010000000000000000000000000000000010000000000000000000000000000",
      "type": "0x2",
      "transactionHash": "0x7eb7f10cdcb032034a68f1d4e4b9abbf6ab66c4befc6e071cfb19865f5354bcb",
      "transactionIndex": "0x0",
      "blockHash": "0xee427bbba6a9e8b658def3d1dda6894533ef0f141441997c283bb282989e031c",
      "blockNumber": "0x9b80ef",
      "gasUsed": "0xb502",
      "effectiveGasPrice": "0x3a0be5be",
      "blobGasPrice": "0x61e620d2",
      "from": "0xb8994021a5ce0c9b8a6c8cf1dc48824c280a8e53",
      "to": "0xdd13e55209fd76afe204dbda4007c227904f0a81",
      "contractAddress": null
    },
    {
      "status": "0x1",
      "cumulativeGasUsed": "0xbaca",
      "logs": [
        {
          "address": "0x000000000022d473030f116ddee9f6b43ac78ba3",
          "topics": [
            "0xda9fa7c1b00402c17d0161b249b1ab8bbec047c5a52207b9c112deffd817036b",
            "0x000000000000000000000000b8994021a5ce0c9b8a6c8cf1dc48824c280a8e53",
            "0x000000000000000000000000dd13e55209fd76afe204dbda4007c227904f0a81",
            "0x000000000000000000000000429ba70129df741b2ca2a85bc3a2a3328e5c09b4"
          ],
          "data": "0x000000000000000000000000ffffffffffffffffffffffffffffffffffffffff0000000000000000000000000000000000000000000000000000ffffffffffff",
          "blockHash": "0xa07c85dc8142d8b438ba7d0b08674aa6cd34d48aaf9b7004e862e19ab77ed419",
          "blockNumber": "0x9b80f0",
          "blockTimestamp": "0x698383a5",
          "transactionHash": "0x0e6be1cc3cc7e52edf12e333881414735e620a8a1a6510dc9c662f683e24bb82",
          "transactionIndex": "0x0",
          "logIndex": "0x0",
          "removed": false
        }
      ],
      "logsBloom": "0x00010000000000000000000000000000000000000000000000000400000000000000000010000040080000000040000000000000000000000000000000080000000000000000000000000000000000000000000000000000000000000000000000000000000000000000000000000000000000000000000000000800000000000020000000000000000000000040000000000000000000000000000000000000000000000100020000000000000000000000000000000000000000080000000000000000000000000000000000000000000000000000000040000000000000000000000000000000000000000000000000000000000000000000000000000400",
      "type": "0x2",
      "transactionHash": "0x0e6be1cc3cc7e52edf12e333881414735e620a8a1a6510dc9c662f683e24bb82",
      "transactionIndex": "0x0",
      "blockHash": "0xa07c85dc8142d8b438ba7d0b08674aa6cd34d48aaf9b7004e862e19ab77ed419",
      "blockNumber": "0x9b80f0",
      "gasUsed": "0xbaca",
      "effectiveGasPrice": "0x32f0ad33",
      "blobGasPrice": "0x49b",
      "from": "0xb8994021a5ce0c9b8a6c8cf1dc48824c280a8e53",
      "to": "0x000000000022d473030f116ddee9f6b43ac78ba3",
      "contractAddress": null
    },
    {
      "status": "0x1",
      "cumulativeGasUsed": "0xd9ad",
      "logs": [
        {
          "address": "0x1c7d4b196cb0c7b01d743fbc6116a902379c7238",
          "topics": [
            "0x8c5be1e5ebec7d5bd14f71427d1e84f3dd0314c0f7b2291e5b200ac8c7c3b925",
            "0x000000000000000000000000b8994021a5ce0c9b8a6c8cf1dc48824c280a8e53",
            "0x000000000000000000000000000000000022d473030f116ddee9f6b43ac78ba3"
          ],
          "data": "0xffffffffffffffffffffffffffffffffffffffffffffffffffffffffffffffff",
          "blockHash": "0x6ae37ed19c76cdceeae027f1abce5d1d34154fec309d9cd5de1cd75e7eebf2d5",
          "blockNumber": "0x9b80f1",
          "blockTimestamp": "0x698383a5",
          "transactionHash": "0x10751d76c34fc4c5acbb8db001a98bd7bad5b463de49bf5e436f9f68c4a30821",
          "transactionIndex": "0x0",
          "logIndex": "0x0",
          "removed": false
        }
      ],
      "logsBloom": "0x00000000000000000000000000000000000000000000000000000000000200000000000010000000000000000040000000000000800000000000000000200000000000000000000000004000000000000000000000000800000000000000000000000000000000000000000000000000000000000000000000000000000000000000000000100000000000000000000000000000000000000000000000000000020000000000020000000000000000000000000000000000000000000000000000000000000000000000000000000000000000000000000000000000000000000010000000000000000010000000000000000000000000000000000000000000",
      "type": "0x2",
      "transactionHash": "0x10751d76c34fc4c5acbb8db001a98bd7bad5b463de49bf5e436f9f68c4a30821",
      "transactionIndex": "0x0",
      "blockHash": "0x6ae37ed19c76cdceeae027f1abce5d1d34154fec309d9cd5de1cd75e7eebf2d5",
      "blockNumber": "0x9b80f1",
      "gasUsed": "0xd9ad",
      "effectiveGasPrice": "0x2cb895f2",
      "blobGasPrice": "0xa",
      "from": "0xb8994021a5ce0c9b8a6c8cf1dc48824c280a8e53",
      "to": "0x1c7d4b196cb0c7b01d743fbc6116a902379c7238",
      "contractAddress": null
    },
    {
      "status": "0x1",
      "cumulativeGasUsed": "0x19477",
      "logs": [
        {
          "address": "0x000000000022d473030f116ddee9f6b43ac78ba3",
          "topics": [
            "0xda9fa7c1b00402c17d0161b249b1ab8bbec047c5a52207b9c112deffd817036b",
            "0x000000000000000000000000b8994021a5ce0c9b8a6c8cf1dc48824c280a8e53",
            "0x0000000000000000000000001c7d4b196cb0c7b01d743fbc6116a902379c7238",
            "0x000000000000000000000000429ba70129df741b2ca2a85bc3a2a3328e5c09b4"
          ],
          "data": "0x000000000000000000000000ffffffffffffffffffffffffffffffffffffffff0000000000000000000000000000000000000000000000000000ffffffffffff",
          "blockHash": "0x6ae37ed19c76cdceeae027f1abce5d1d34154fec309d9cd5de1cd75e7eebf2d5",
          "blockNumber": "0x9b80f1",
          "blockTimestamp": "0x698383a5",
          "transactionHash": "0x6d8cfc954210702e3fbf2632fc4edf76b94a3260df8e39e28efaa89365d59a7f",
          "transactionIndex": "0x1",
          "logIndex": "0x1",
          "removed": false
        }
      ],
      "logsBloom": "0x00010000000000000000000000000000000000000000000000000000000000000000000010000040080000000040000000000000000004000000000000080000100000000000000000000000000000000000000000000000000000000000000000000000000000000000000000000000000000000000000000000800000000000020000000000000000000000000000000000000000000000000000000000000000000000000020000000000000000000000008000000000000000080000000000000000000000000000000000000000000000000000000040000000000000000000000000000000000000000000000000000000000000000000000000000400",
      "type": "0x2",
      "transactionHash": "0x6d8cfc954210702e3fbf2632fc4edf76b94a3260df8e39e28efaa89365d59a7f",
      "transactionIndex": "0x1",
      "blockHash": "0x6ae37ed19c76cdceeae027f1abce5d1d34154fec309d9cd5de1cd75e7eebf2d5",
      "blockNumber": "0x9b80f1",
      "gasUsed": "0xbaca",
      "effectiveGasPrice": "0x2cb895f2",
      "blobGasPrice": "0xa",
      "from": "0xb8994021a5ce0c9b8a6c8cf1dc48824c280a8e53",
      "to": "0x000000000022d473030f116ddee9f6b43ac78ba3",
      "contractAddress": null
    },
    {
      "status": "0x1",
      "cumulativeGasUsed": "0x24445",
      "logs": [
        {
          "address": "0xdd13e55209fd76afe204dbda4007c227904f0a81",
          "topics": [
            "0xe1fffcc4923d04b559f4d29a8bfc6cda04eb5b0d3c460751c2402c5c5cc9109c",
            "0x000000000000000000000000b8994021a5ce0c9b8a6c8cf1dc48824c280a8e53"
          ],
          "data": "0x00000000000000000000000000000000000000000000000000038d7ea4c68000",
          "blockHash": "0x6ae37ed19c76cdceeae027f1abce5d1d34154fec309d9cd5de1cd75e7eebf2d5",
          "blockNumber": "0x9b80f1",
          "blockTimestamp": "0x698383a5",
          "transactionHash": "0xbf2f9af60d4c404ad1a0bf3a141ab78b4e41a497011f02fa2fbfaa65afd6cea7",
          "transactionIndex": "0x2",
          "logIndex": "0x2",
          "removed": false
        }
      ],
      "logsBloom": "0x00000000000000000000000000000000000000000000000000000000000000000000000010000000000000000040000000000000000000000000000000000000000000000000000000000000000000000000000000000000000000008000000000000000000000000000000000000000000000000000000000008000000000000000000000000000000000000000000000000001000000000000000000000000000000000000020000000000000000000000000000000000020000000000000000000000000000000000000000000000000000000000000000000000000000000000000000000000000000000000000000010000000000400000000000000000",
      "type": "0x2",
      "transactionHash": "0xbf2f9af60d4c404ad1a0bf3a141ab78b4e41a497011f02fa2fbfaa65afd6cea7",
      "transactionIndex": "0x2",
      "blockHash": "0x6ae37ed19c76cdceeae027f1abce5d1d34154fec309d9cd5de1cd75e7eebf2d5",
      "blockNumber": "0x9b80f1",
      "gasUsed": "0xafce",
      "effectiveGasPrice": "0x2cb895f2",
      "blobGasPrice": "0xa",
      "from": "0xb8994021a5ce0c9b8a6c8cf1dc48824c280a8e53",
      "to": "0xdd13e55209fd76afe204dbda4007c227904f0a81",
      "contractAddress": null
    },
    {
      "status": "0x1",
      "cumulativeGasUsed": "0x9732d",
      "logs": [
        {
          "address": "0xe03a1074c86cfedd5c142c4f04f1a1536e203543",
          "topics": [
            "0xdd466e674ea557f56295e2d0218a125ea4b4f0f6f3307b95f85e6110838d6438",
            "0xf8591a339cba73a024246d7b1399e02d8b118826fc9861555fb1ea243691c95e",
            "0x0000000000000000000000001c7d4b196cb0c7b01d743fbc6116a902379c7238",
            "0x000000000000000000000000dd13e55209fd76afe204dbda4007c227904f0a81"
          ],
          "data": "0x0000000000000000000000000000000000000000000000000000000000000bb8000000000000000000000000000000000000000000000000000000000000003c000000000000000000000000ec1a67deda1574520c940736a1ef31d8241e80c000000000000000000000000000000000000000010000000000000000000000000000000000000000000000000000000000000000000000000000000000000000",
          "blockHash": "0x6ae37ed19c76cdceeae027f1abce5d1d34154fec309d9cd5de1cd75e7eebf2d5",
          "blockNumber": "0x9b80f1",
          "blockTimestamp": "0x698383a5",
          "transactionHash": "0xb5a4a7c2a9a6165243b03e309ddb82f672edf8146a7de05a8cb47783ece2c976",
          "transactionIndex": "0x3",
          "logIndex": "0x3",
          "removed": false
        },
        {
          "address": "0x429ba70129df741b2ca2a85bc3a2a3328e5c09b4",
          "topics": [
            "0xddf252ad1be2c89b69c2b068fc378daa952ba7f163c4a11628f55a4df523b3ef",
            "0x0000000000000000000000000000000000000000000000000000000000000000",
            "0x000000000000000000000000b8994021a5ce0c9b8a6c8cf1dc48824c280a8e53",
            "0x000000000000000000000000000000000000000000000000000000000000598b"
          ],
          "data": "0x",
          "blockHash": "0x6ae37ed19c76cdceeae027f1abce5d1d34154fec309d9cd5de1cd75e7eebf2d5",
          "blockNumber": "0x9b80f1",
          "blockTimestamp": "0x698383a5",
          "transactionHash": "0xb5a4a7c2a9a6165243b03e309ddb82f672edf8146a7de05a8cb47783ece2c976",
          "transactionIndex": "0x3",
          "logIndex": "0x4",
          "removed": false
        },
        {
          "address": "0xe03a1074c86cfedd5c142c4f04f1a1536e203543",
          "topics": [
            "0xf208f4912782fd25c7f114ca3723a2d5dd6f3bcc3ac8db5af63baa85f711d5ec",
            "0xf8591a339cba73a024246d7b1399e02d8b118826fc9861555fb1ea243691c95e",
            "0x000000000000000000000000429ba70129df741b2ca2a85bc3a2a3328e5c09b4"
          ],
          "data": "0xffffffffffffffffffffffffffffffffffffffffffffffffffffffffffff5038000000000000000000000000000000000000000000000000000000000000afc80000000000000000000000000000000000000000000000000000000000110e87000000000000000000000000000000000000000000000000000000000000598b",
          "blockHash": "0x6ae37ed19c76cdceeae027f1abce5d1d34154fec309d9cd5de1cd75e7eebf2d5",
          "blockNumber": "0x9b80f1",
          "blockTimestamp": "0x698383a5",
          "transactionHash": "0xb5a4a7c2a9a6165243b03e309ddb82f672edf8146a7de05a8cb47783ece2c976",
          "transactionIndex": "0x3",
          "logIndex": "0x5",
          "removed": false
        },
        {
          "address": "0x1c7d4b196cb0c7b01d743fbc6116a902379c7238",
          "topics": [
            "0xddf252ad1be2c89b69c2b068fc378daa952ba7f163c4a11628f55a4df523b3ef",
            "0x000000000000000000000000b8994021a5ce0c9b8a6c8cf1dc48824c280a8e53",
            "0x000000000000000000000000e03a1074c86cfedd5c142c4f04f1a1536e203543"
          ],
          "data": "0x00000000000000000000000000000000000000000000000000000000000f4240",
          "blockHash": "0x6ae37ed19c76cdceeae027f1abce5d1d34154fec309d9cd5de1cd75e7eebf2d5",
          "blockNumber": "0x9b80f1",
          "blockTimestamp": "0x698383a5",
          "transactionHash": "0xb5a4a7c2a9a6165243b03e309ddb82f672edf8146a7de05a8cb47783ece2c976",
          "transactionIndex": "0x3",
          "logIndex": "0x6",
          "removed": false
        },
        {
          "address": "0xdd13e55209fd76afe204dbda4007c227904f0a81",
          "topics": [
            "0xddf252ad1be2c89b69c2b068fc378daa952ba7f163c4a11628f55a4df523b3ef",
            "0x000000000000000000000000b8994021a5ce0c9b8a6c8cf1dc48824c280a8e53",
            "0x000000000000000000000000e03a1074c86cfedd5c142c4f04f1a1536e203543"
          ],
          "data": "0x00000000000000000000000000000000000000000000000000000000000f4240",
          "blockHash": "0x6ae37ed19c76cdceeae027f1abce5d1d34154fec309d9cd5de1cd75e7eebf2d5",
          "blockNumber": "0x9b80f1",
          "blockTimestamp": "0x698383a5",
          "transactionHash": "0xb5a4a7c2a9a6165243b03e309ddb82f672edf8146a7de05a8cb47783ece2c976",
          "transactionIndex": "0x3",
          "logIndex": "0x7",
          "removed": false
        }
      ],
      "logsBloom": "0x00000000000000000000001000000000000000000000000000000400080200000000000010004040080000000040000000000100000004000000000000000000100000000000000000000008000000000000000000040000000000000000000000000000020000000000000080000800000000000000100000008810000000000000000001100008000010000040000000000001000000000000000000200000000004000100020000000000000000000000008000400000020000000000000000000002000000000400000000000000000000000000000000001000000020001000004020000000000011000000000004010000000000000000000000000000",
      "type": "0x2",
      "transactionHash": "0xb5a4a7c2a9a6165243b03e309ddb82f672edf8146a7de05a8cb47783ece2c976",
      "transactionIndex": "0x3",
      "blockHash": "0x6ae37ed19c76cdceeae027f1abce5d1d34154fec309d9cd5de1cd75e7eebf2d5",
      "blockNumber": "0x9b80f1",
      "gasUsed": "0x72ee8",
      "effectiveGasPrice": "0x2cb895f2",
      "blobGasPrice": "0xa",
      "from": "0xb8994021a5ce0c9b8a6c8cf1dc48824c280a8e53",
      "to": "0x429ba70129df741b2ca2a85bc3a2a3328e5c09b4",
      "contractAddress": null
    }
  ],
  "libraries": [],
  "pending": [],
  "returns": {},
  "timestamp": 1770226607924,
  "chain": 11155111,
  "commit": "f143dd7"
}